{
  "_format": "hh-sol-artifact-1",
  "contractName": "WorldCoinIris",
  "sourceName": "contracts/WorldCoinIris.sol",
  "abi": [
    {
      "inputs": [
        {
          "internalType": "contract IWorldID",
          "name": "_worldId",
          "type": "address"
        }
      ],
      "stateMutability": "nonpayable",
      "type": "constructor"
    },
    {
      "inputs": [],
      "name": "InvalidNullifier",
      "type": "error"
    },
    {
      "anonymous": false,
      "inputs": [
        {
          "indexed": false,
          "internalType": "bool",
          "name": "status",
          "type": "bool"
        }
      ],
      "name": "Verify",
      "type": "event"
    },
    {
      "inputs": [
        {
          "internalType": "address",
          "name": "signal",
          "type": "address"
        },
        {
          "internalType": "uint256",
          "name": "root",
          "type": "uint256"
        },
        {
          "internalType": "uint256",
          "name": "nullifierHash",
          "type": "uint256"
        },
        {
          "internalType": "uint256[8]",
          "name": "proof",
          "type": "uint256[8]"
        }
      ],
      "name": "verifyAndExecute",
      "outputs": [],
      "stateMutability": "nonpayable",
      "type": "function"
    }
  ],
  "bytecode": "0x60c0604052600160a09081525034801561001857600080fd5b50604051610696380380610696833981810160405281019061003a91906100e9565b8073ffffffffffffffffffffffffffffffffffffffff1660808173ffffffffffffffffffffffffffffffffffffffff168152505050610116565b600080fd5b600073ffffffffffffffffffffffffffffffffffffffff82169050919050565b60006100a482610079565b9050919050565b60006100b682610099565b9050919050565b6100c6816100ab565b81146100d157600080fd5b50565b6000815190506100e3816100bd565b92915050565b6000602082840312156100ff576100fe610074565b5b600061010d848285016100d4565b91505092915050565b60805160a05161055d610139600039600060e20152600060a5015261055d6000f3fe608060405234801561001057600080fd5b506004361061002b5760003560e01c8063e9b7055314610030575b600080fd5b61004a60048036038101906100459190610304565b61004c565b005b60008083815260200190815260200160002060009054906101000a900460ff16156100a3576040517f5d904cb200000000000000000000000000000000000000000000000000000000815260040160405180910390fd5b7f000000000000000000000000000000000000000000000000000000000000000073ffffffffffffffffffffffffffffffffffffffff16633bc778e3847f00000000000000000000000000000000000000000000000000000000000000006101298860405160200161011591906103b4565b60405160208183030381529060405261020d565b866101523060405160200161013e91906103b4565b60405160208183030381529060405261020d565b876040518763ffffffff1660e01b8152600401610174969594939291906103fe565b60006040518083038186803b15801561018c57600080fd5b505afa1580156101a0573d6000803e3d6000fd5b50505050600160008084815260200190815260200160002060006101000a81548160ff0219169083151502179055507fa0c1fc382db99c490561b48be7ef277080a844c158e8a35ba8aabd16c032045060016040516101ff919061047b565b60405180910390a150505050565b60006008826040516020016102229190610510565b6040516020818303038152906040528051906020012060001c901c9050919050565b600080fd5b600073ffffffffffffffffffffffffffffffffffffffff82169050919050565b600061027482610249565b9050919050565b61028481610269565b811461028f57600080fd5b50565b6000813590506102a18161027b565b92915050565b6000819050919050565b6102ba816102a7565b81146102c557600080fd5b50565b6000813590506102d7816102b1565b92915050565b600080fd5b6000819050826020600802820111156102fe576102fd6102dd565b5b92915050565b600080600080610160858703121561031f5761031e610244565b5b600061032d87828801610292565b945050602061033e878288016102c8565b935050604061034f878288016102c8565b9250506060610360878288016102e2565b91505092959194509250565b60008160601b9050919050565b60006103848261036c565b9050919050565b600061039682610379565b9050919050565b6103ae6103a982610269565b61038b565b82525050565b60006103c0828461039d565b60148201915081905092915050565b6103d8816102a7565b82525050565b82818337600083830152505050565b6103fa61010083836103de565b5050565b60006101a08201905061041460008301896103cf565b61042160208301886103cf565b61042e60408301876103cf565b61043b60608301866103cf565b61044860808301856103cf565b61045560a08301846103ed565b979650505050505050565b60008115159050919050565b61047581610460565b82525050565b6000602082019050610490600083018461046c565b92915050565b600081519050919050565b600081905092915050565b60005b838110156104ca5780820151818401526020810190506104af565b838111156104d9576000848401525b50505050565b60006104ea82610496565b6104f481856104a1565b93506105048185602086016104ac565b80840191505092915050565b600061051c82846104df565b91508190509291505056fea2646970667358221220a37b9579ed9d9e7e0ff6c1eb36f3f48c63985e16afad5313c58526f462e5e5fc64736f6c63430008090033",
  "linkReferences": {},
  "deployedLinkReferences": {}
}