{
  "_format": "hh-sol-artifact-1",
  "contractName": "Iris",
  "sourceName": "contracts/Iris.sol",
  "abi": [
    {
      "inputs": [
        {
          "internalType": "string",
          "name": "_messagLog",
          "type": "string"
        }
      ],
      "name": "addMessage",
      "outputs": [],
      "stateMutability": "nonpayable",
      "type": "function"
    },
    {
      "inputs": [
        {
          "internalType": "string",
          "name": "_name",
          "type": "string"
        }
      ],
      "name": "addName",
      "outputs": [],
      "stateMutability": "nonpayable",
      "type": "function"
    },
    {
      "inputs": [
        {
          "internalType": "string",
          "name": "_pic",
          "type": "string"
        }
      ],
      "name": "addProfilepic",
      "outputs": [],
      "stateMutability": "nonpayable",
      "type": "function"
    },
    {
      "inputs": [
        {
          "internalType": "uint256",
          "name": "_tid",
          "type": "uint256"
        }
      ],
      "name": "checkTokenId",
      "outputs": [
        {
          "internalType": "address",
          "name": "",
          "type": "address"
        }
      ],
      "stateMutability": "view",
      "type": "function"
    },
    {
      "inputs": [
        {
          "internalType": "uint256",
          "name": "_tid",
          "type": "uint256"
        }
      ],
      "name": "getAddressById",
      "outputs": [
        {
          "internalType": "address",
          "name": "",
          "type": "address"
        }
      ],
      "stateMutability": "view",
      "type": "function"
    },
    {
      "inputs": [],
      "name": "getUser",
      "outputs": [
        {
          "components": [
            {
              "internalType": "string",
              "name": "name",
              "type": "string"
            },
            {
              "internalType": "string",
              "name": "profilepic",
              "type": "string"
            },
            {
              "internalType": "string",
              "name": "messageLog",
              "type": "string"
            },
            {
              "internalType": "uint256",
              "name": "tokenId",
              "type": "uint256"
            },
            {
              "internalType": "bool",
              "name": "verified",
              "type": "bool"
            }
          ],
          "internalType": "struct Iris.User",
          "name": "_user",
          "type": "tuple"
        }
      ],
      "stateMutability": "view",
      "type": "function"
    },
    {
      "inputs": [
        {
          "internalType": "uint256",
          "name": "_tid",
          "type": "uint256"
        }
      ],
      "name": "getUserById",
      "outputs": [
        {
          "components": [
            {
              "internalType": "string",
              "name": "name",
              "type": "string"
            },
            {
              "internalType": "string",
              "name": "profilepic",
              "type": "string"
            },
            {
              "internalType": "string",
              "name": "messageLog",
              "type": "string"
            },
            {
              "internalType": "uint256",
              "name": "tokenId",
              "type": "uint256"
            },
            {
              "internalType": "bool",
              "name": "verified",
              "type": "bool"
            }
          ],
          "internalType": "struct Iris.User",
          "name": "",
          "type": "tuple"
        }
      ],
      "stateMutability": "view",
      "type": "function"
    },
    {
      "inputs": [],
      "name": "register",
      "outputs": [],
      "stateMutability": "nonpayable",
      "type": "function"
    },
    {
      "inputs": [
        {
          "internalType": "address",
          "name": "_user",
          "type": "address"
        }
      ],
      "name": "searchUser",
      "outputs": [
        {
          "components": [
            {
              "internalType": "string",
              "name": "name",
              "type": "string"
            },
            {
              "internalType": "string",
              "name": "profilepic",
              "type": "string"
            },
            {
              "internalType": "string",
              "name": "messageLog",
              "type": "string"
            },
            {
              "internalType": "uint256",
              "name": "tokenId",
              "type": "uint256"
            },
            {
              "internalType": "bool",
              "name": "verified",
              "type": "bool"
            }
          ],
          "internalType": "struct Iris.User",
          "name": "",
          "type": "tuple"
        }
      ],
      "stateMutability": "view",
      "type": "function"
    },
    {
      "inputs": [
        {
          "internalType": "uint256",
          "name": "_id",
          "type": "uint256"
        },
        {
          "internalType": "string",
          "name": "_messageLog",
          "type": "string"
        }
      ],
      "name": "updateMessageLog",
      "outputs": [],
      "stateMutability": "nonpayable",
      "type": "function"
    },
    {
      "inputs": [],
      "name": "verifyYourAccount",
      "outputs": [],
      "stateMutability": "nonpayable",
      "type": "function"
    }
  ],
  "bytecode": "0x608060405234801561001057600080fd5b506119e6806100206000396000f3fe608060405234801561001057600080fd5b50600436106100a95760003560e01c8063755d434a11610071578063755d434a14610150578063832880e71461015a57806388abea3e146101785780638d80c922146101945780639bd7417f146101c4578063c96b7b75146101f4576100a9565b806311456b47146100ae5780631aa3a008146100ca5780636a226a49146100d45780636ed6da9e146100f05780636f790d2c14610120575b600080fd5b6100c860048036038101906100c3919061146d565b610210565b005b6100d26102ef565b005b6100ee60048036038101906100e9919061146d565b610429565b005b61010a600480360381019061010591906114ec565b610508565b604051610117919061164f565b60405180910390f35b61013a600480360381019061013591906114ec565b6107f4565b60405161014791906116b2565b60405180910390f35b61015861093b565b005b610162610a1c565b60405161016f919061164f565b60405180910390f35b610192600480360381019061018d919061146d565b610cd3565b005b6101ae60048036038101906101a991906114ec565b610db2565b6040516101bb91906116b2565b60405180910390f35b6101de60048036038101906101d991906116f9565b610e73565b6040516101eb919061164f565b60405180910390f35b61020e60048036038101906102099190611726565b61112c565b005b6000600160003373ffffffffffffffffffffffffffffffffffffffff1673ffffffffffffffffffffffffffffffffffffffff1681526020019081526020016000206003015411610295576040517f08c379a000000000000000000000000000000000000000000000000000000000815260040161028c906117df565b60405180910390fd5b80600160003373ffffffffffffffffffffffffffffffffffffffff1673ffffffffffffffffffffffffffffffffffffffff16815260200190815260200160002060000190805190602001906102eb92919061123f565b5050565b6000600160003373ffffffffffffffffffffffffffffffffffffffff1673ffffffffffffffffffffffffffffffffffffffff1681526020019081526020016000206003015414610374576040517f08c379a000000000000000000000000000000000000000000000000000000000815260040161036b9061184b565b60405180910390fd5b6000808154809291906103869061189a565b9190505550600054600160003373ffffffffffffffffffffffffffffffffffffffff1673ffffffffffffffffffffffffffffffffffffffff1681526020019081526020016000206003018190555033600260008054815260200190815260200160002060006101000a81548173ffffffffffffffffffffffffffffffffffffffff021916908373ffffffffffffffffffffffffffffffffffffffff160217905550565b6000600160003373ffffffffffffffffffffffffffffffffffffffff1673ffffffffffffffffffffffffffffffffffffffff16815260200190815260200160002060030154116104ae576040517f08c379a00000000000000000000000000000000000000000000000000000000081526004016104a5906117df565b60405180910390fd5b80600160003373ffffffffffffffffffffffffffffffffffffffff1673ffffffffffffffffffffffffffffffffffffffff168152602001908152602001600020600201908051906020019061050492919061123f565b5050565b6105106112c5565b6000600160003373ffffffffffffffffffffffffffffffffffffffff1673ffffffffffffffffffffffffffffffffffffffff1681526020019081526020016000206003015411610595576040517f08c379a000000000000000000000000000000000000000000000000000000000815260040161058c906117df565b60405180910390fd5b600160006002600085815260200190815260200160002060009054906101000a900473ffffffffffffffffffffffffffffffffffffffff1673ffffffffffffffffffffffffffffffffffffffff1673ffffffffffffffffffffffffffffffffffffffff1681526020019081526020016000206040518060a001604052908160008201805461062290611912565b80601f016020809104026020016040519081016040528092919081815260200182805461064e90611912565b801561069b5780601f106106705761010080835404028352916020019161069b565b820191906000526020600020905b81548152906001019060200180831161067e57829003601f168201915b505050505081526020016001820180546106b490611912565b80601f01602080910402602001604051908101604052809291908181526020018280546106e090611912565b801561072d5780601f106107025761010080835404028352916020019161072d565b820191906000526020600020905b81548152906001019060200180831161071057829003601f168201915b5050505050815260200160028201805461074690611912565b80601f016020809104026020016040519081016040528092919081815260200182805461077290611912565b80156107bf5780601f10610794576101008083540402835291602001916107bf565b820191906000526020600020905b8154815290600101906020018083116107a257829003601f168201915b50505050508152602001600382015481526020016004820160009054906101000a900460ff1615151515815250509050919050565b600080600160003373ffffffffffffffffffffffffffffffffffffffff1673ffffffffffffffffffffffffffffffffffffffff168152602001908152602001600020600301541161087a576040517f08c379a0000000000000000000000000000000000000000000000000000000008152600401610871906117df565b60405180910390fd5b600054600160003373ffffffffffffffffffffffffffffffffffffffff1673ffffffffffffffffffffffffffffffffffffffff1681526020019081526020016000206003015414610900576040517f08c379a00000000000000000000000000000000000000000000000000000000081526004016108f790611990565b60405180910390fd5b6002600083815260200190815260200160002060009054906101000a900473ffffffffffffffffffffffffffffffffffffffff169050919050565b6000600160003373ffffffffffffffffffffffffffffffffffffffff1673ffffffffffffffffffffffffffffffffffffffff16815260200190815260200160002060030154116109c0576040517f08c379a00000000000000000000000000000000000000000000000000000000081526004016109b7906117df565b60405180910390fd5b60018060003373ffffffffffffffffffffffffffffffffffffffff1673ffffffffffffffffffffffffffffffffffffffff16815260200190815260200160002060040160006101000a81548160ff021916908315150217905550565b610a246112c5565b6000600160003373ffffffffffffffffffffffffffffffffffffffff1673ffffffffffffffffffffffffffffffffffffffff1681526020019081526020016000206003015411610aa9576040517f08c379a0000000000000000000000000000000000000000000000000000000008152600401610aa0906117df565b60405180910390fd5b600160003373ffffffffffffffffffffffffffffffffffffffff1673ffffffffffffffffffffffffffffffffffffffff1681526020019081526020016000206040518060a0016040529081600082018054610b0390611912565b80601f0160208091040260200160405190810160405280929190818152602001828054610b2f90611912565b8015610b7c5780601f10610b5157610100808354040283529160200191610b7c565b820191906000526020600020905b815481529060010190602001808311610b5f57829003601f168201915b50505050508152602001600182018054610b9590611912565b80601f0160208091040260200160405190810160405280929190818152602001828054610bc190611912565b8015610c0e5780601f10610be357610100808354040283529160200191610c0e565b820191906000526020600020905b815481529060010190602001808311610bf157829003601f168201915b50505050508152602001600282018054610c2790611912565b80601f0160208091040260200160405190810160405280929190818152602001828054610c5390611912565b8015610ca05780601f10610c7557610100808354040283529160200191610ca0565b820191906000526020600020905b815481529060010190602001808311610c8357829003601f168201915b50505050508152602001600382015481526020016004820160009054906101000a900460ff161515151581525050905090565b6000600160003373ffffffffffffffffffffffffffffffffffffffff1673ffffffffffffffffffffffffffffffffffffffff1681526020019081526020016000206003015411610d58576040517f08c379a0000000000000000000000000000000000000000000000000000000008152600401610d4f906117df565b60405180910390fd5b80600160003373ffffffffffffffffffffffffffffffffffffffff1673ffffffffffffffffffffffffffffffffffffffff1681526020019081526020016000206001019080519060200190610dae92919061123f565b5050565b600080600160003373ffffffffffffffffffffffffffffffffffffffff1673ffffffffffffffffffffffffffffffffffffffff1681526020019081526020016000206003015411610e38576040517f08c379a0000000000000000000000000000000000000000000000000000000008152600401610e2f906117df565b60405180910390fd5b6002600083815260200190815260200160002060009054906101000a900473ffffffffffffffffffffffffffffffffffffffff169050919050565b610e7b6112c5565b6000600160003373ffffffffffffffffffffffffffffffffffffffff1673ffffffffffffffffffffffffffffffffffffffff1681526020019081526020016000206003015411610f00576040517f08c379a0000000000000000000000000000000000000000000000000000000008152600401610ef7906117df565b60405180910390fd5b600160008373ffffffffffffffffffffffffffffffffffffffff1673ffffffffffffffffffffffffffffffffffffffff1681526020019081526020016000206040518060a0016040529081600082018054610f5a90611912565b80601f0160208091040260200160405190810160405280929190818152602001828054610f8690611912565b8015610fd35780601f10610fa857610100808354040283529160200191610fd3565b820191906000526020600020905b815481529060010190602001808311610fb657829003601f168201915b50505050508152602001600182018054610fec90611912565b80601f016020809104026020016040519081016040528092919081815260200182805461101890611912565b80156110655780601f1061103a57610100808354040283529160200191611065565b820191906000526020600020905b81548152906001019060200180831161104857829003601f168201915b5050505050815260200160028201805461107e90611912565b80601f01602080910402602001604051908101604052809291908181526020018280546110aa90611912565b80156110f75780601f106110cc576101008083540402835291602001916110f7565b820191906000526020600020905b8154815290600101906020018083116110da57829003601f168201915b50505050508152602001600382015481526020016004820160009054906101000a900460ff1615151515815250509050919050565b6000600160003373ffffffffffffffffffffffffffffffffffffffff1673ffffffffffffffffffffffffffffffffffffffff16815260200190815260200160002060030154116111b1576040517f08c379a00000000000000000000000000000000000000000000000000000000081526004016111a8906117df565b60405180910390fd5b80600160006002600086815260200190815260200160002060009054906101000a900473ffffffffffffffffffffffffffffffffffffffff1673ffffffffffffffffffffffffffffffffffffffff1673ffffffffffffffffffffffffffffffffffffffff168152602001908152602001600020600201908051906020019061123a92919061123f565b505050565b82805461124b90611912565b90600052602060002090601f01602090048101928261126d57600085556112b4565b82601f1061128657805160ff19168380011785556112b4565b828001600101855582156112b4579182015b828111156112b3578251825591602001919060010190611298565b5b5090506112c191906112f6565b5090565b6040518060a00160405280606081526020016060815260200160608152602001600081526020016000151581525090565b5b8082111561130f5760008160009055506001016112f7565b5090565b6000604051905090565b600080fd5b600080fd5b600080fd5b600080fd5b6000601f19601f8301169050919050565b7f4e487b7100000000000000000000000000000000000000000000000000000000600052604160045260246000fd5b61137a82611331565b810181811067ffffffffffffffff8211171561139957611398611342565b5b80604052505050565b60006113ac611313565b90506113b88282611371565b919050565b600067ffffffffffffffff8211156113d8576113d7611342565b5b6113e182611331565b9050602081019050919050565b82818337600083830152505050565b600061141061140b846113bd565b6113a2565b90508281526020810184848401111561142c5761142b61132c565b5b6114378482856113ee565b509392505050565b600082601f83011261145457611453611327565b5b81356114648482602086016113fd565b91505092915050565b6000602082840312156114835761148261131d565b5b600082013567ffffffffffffffff8111156114a1576114a0611322565b5b6114ad8482850161143f565b91505092915050565b6000819050919050565b6114c9816114b6565b81146114d457600080fd5b50565b6000813590506114e6816114c0565b92915050565b6000602082840312156115025761150161131d565b5b6000611510848285016114d7565b91505092915050565b600081519050919050565b600082825260208201905092915050565b60005b83811015611553578082015181840152602081019050611538565b83811115611562576000848401525b50505050565b600061157382611519565b61157d8185611524565b935061158d818560208601611535565b61159681611331565b840191505092915050565b6115aa816114b6565b82525050565b60008115159050919050565b6115c5816115b0565b82525050565b600060a08301600083015184820360008601526115e88282611568565b915050602083015184820360208601526116028282611568565b9150506040830151848203604086015261161c8282611568565b915050606083015161163160608601826115a1565b50608083015161164460808601826115bc565b508091505092915050565b6000602082019050818103600083015261166981846115cb565b905092915050565b600073ffffffffffffffffffffffffffffffffffffffff82169050919050565b600061169c82611671565b9050919050565b6116ac81611691565b82525050565b60006020820190506116c760008301846116a3565b92915050565b6116d681611691565b81146116e157600080fd5b50565b6000813590506116f3816116cd565b92915050565b60006020828403121561170f5761170e61131d565b5b600061171d848285016116e4565b91505092915050565b6000806040838503121561173d5761173c61131d565b5b600061174b858286016114d7565b925050602083013567ffffffffffffffff81111561176c5761176b611322565b5b6117788582860161143f565b9150509250929050565b600082825260208201905092915050565b7f5265676973746572204669727374212100000000000000000000000000000000600082015250565b60006117c9601083611782565b91506117d482611793565b602082019050919050565b600060208201905081810360008301526117f8816117bc565b9050919050565b7f596f752061726520616c72656164792072656769737465726564000000000000600082015250565b6000611835601a83611782565b9150611840826117ff565b602082019050919050565b6000602082019050818103600083015261186481611828565b9050919050565b7f4e487b7100000000000000000000000000000000000000000000000000000000600052601160045260246000fd5b60006118a5826114b6565b91507fffffffffffffffffffffffffffffffffffffffffffffffffffffffffffffffff8214156118d8576118d761186b565b5b600182019050919050565b7f4e487b7100000000000000000000000000000000000000000000000000000000600052602260045260246000fd5b6000600282049050600182168061192a57607f821691505b6020821081141561193e5761193d6118e3565b5b50919050565b7f546f6b656e204964206e6f74206d617463686564000000000000000000000000600082015250565b600061197a601483611782565b915061198582611944565b602082019050919050565b600060208201905081810360008301526119a98161196d565b905091905056fea26469706673582212206a9d54ad0a2c5142ca3e26c5de5f23ec76709b14c74801b53dc8b1dd3766279464736f6c63430008090033",
  "linkReferences": {},
  "deployedLinkReferences": {}
}